:0F000000754031754132754233754334020080CB
:0300230002004098
:0B004000209905E599C29832C2993260
:10008000758920758DFD75985075A890D28E1202D5
:10009000C01202B7B430061200A30203FB12010122
:1000A0000203FBC000C001C00290036712031012DC
:1000B000033C90037512031060FEFA120304BA2386
:1000C000030200FAEA1202E212033C120304740073
:1000D0007802791060FEB42E030200F11202E2747D
:1000E00000D9F1D8061203040200D012030A02005C
:1000F000D212033C12033C0200B2D002D001D00065
:1001000022C000C00190036E12031012033C900342
:100110008B12031012033C60FEF8120304E8B423B0
:10012000030202B2F544742A1202E2740060FEB4C3
:1001300023030202B2F545742A1202E2740060FE43
:10014000B423030202B2F546742A1202E27400607C
:10015000FEB423030202B2F547742A1202E212032C
:100160003CE544B54012E545B5410DE546B54208CC
:10017000E547B5430302017B0202A39003961203F5
:100180001012033C740060FEB423030202B2B42ACE
:10019000307400B4001E12033CB4001812033CB4C7
:1001A000001212033C9003EF12031012033C1203DF
:1001B0003C02010EB430CD740060FEB42303020291
:1001C000B2B42AC09003AF12031060FEB42303023E
:1001D00002B2F544120304742A1202E2740060FEB3
:1001E000B423030202B2F545742A1202E2740060DD
:1001F000FEB423030202B2F546742A1202E274002E
:1002000060FEB423030202B2F547742A1202E2121E
:10021000033CE544B54012E545B5410DE546B54220
:1002200008E547B5430302022C0202A39003BE1265
:10023000031012033C9003CF12031060FEF544B488
:1002400023030202B27400120304742A1202E2743D
:100250000060FEB423030202B2F545742A1202E2E2
:10026000740060FEB423030202B2F546742A12023F
:10027000E2740060FEB423030202B2F547742A124E
:1002800002E212033CE544F540E545F541E546F55B
:1002900042E547F54374009003DE12031012033C5D
:1002A00002010E9003A012031012033C12033C0241
:1002B000010ED001D0002290035312031060FE22E1
:1002C00074381202D11202F3740F1202D11202F327
:1002D00022F5A0C2B5C2B6D2B7000000C2B7120262
:1002E000F322F5A0D2B5C2B6D2B7000000C2B71251
:1002F00002F322C000C001786479FFD9FED8FAD099
:1003000001D0002274011202D12274C01202D12243
:10031000C000C001120304740078027910E49360F5
:10032000141202E2A3D90CD80512030480EB1203C5
:100330000A80E880E87400D001D000227814758922
:1003400001758C4B758AFDD28C308DFDC28DC28CAF
:02035000D8EFE4
:1003520022456E746572204D6F6465202831206FCE
:1003620072203229004D4F44452031004D4F444503
:10037200203200456E746572204E756D6265722082
:10038200283120746F20342900456E746572204331
:100392006F646500446F6F72204F70656E00496E26
:1003A200636F727265637420436F646500456E7497
:1003B2006572204F6C6420436F64650050617373F3
:1003C200776F726420436F727265637400456E7456
:1003D2006572204E657720436F64650050617373C8
:1003E200776F7264204368616E67656400446F6F63
:0C03F2007220436C6F7365640002009180
:00000001FF
