:1000000075503175513275523375533480117B08F8
:100010007AFF79FFD9FEDAFADBF6227423117B74BA
:10002000FF7580007590FFC29020940474318007A2
:100030002095F174328000110E758920758DFA7546
:100040009850D28E117BB4313A7465117B746E1165
:100050007B7474117B7465117B7472117B74201135
:100060007B746E117B7475117B746D117B746211DE
:100070007B7465117B7472117B800AF5993099FD50
:10008000C2992241C57590FFC290209404743180BA
:10009000242095047432801D20960474338016D277
:1000A00090C2912094047434800BC29320960474FF
:1000B00023800280D0FCF5993099FDC299110EEC95
:1000C000B431028011B43202806BB4330221A1B486
:1000D00034024131011F744D117B11E211E211E232
:1000E000800D7D087EFA7FFADEFEDFFCDDF62274ED
:1000F00079117B7420117B746E117B7461117B7498
:100100006D117B7465117B7420117B7469117B7494
:1001100073117B7420117B7444117B7461117B74A7
:100120006E117B7469117B7479117B7461117B741E
:0D0130006C117B41B77449117B11E211E2A3
:10013D0011E27420117B7461117B746D117B74203D
:10014D00117B7464117B746F117B7469117B746EF8
:10015D00117B7467117B7420117B7453117B746553
:10016D00117B7472117B7469117B7461117B746CDA
:10017D00117B7420117B7450117B7472117B746F21
:10018D00117B746A117B7465117B7463117B7474BC
:10019D00117B41B77454117B11E211E211E27468C5
:1001AD00117B7469117B7473117B7420117B7469DD
:1001BD00117B7473117B7420117B7450117B7472DD
:1001CD00117B746F117B746A117B7465117B746381
:1001DD00117B7474117B7432117B746F117B746697
:1001ED00117B7420117B744D117B7469117B7463C9
:1001FD00117B7472117B746F117B7463117B746F3F
:10020D00117B746E117B7474117B7472117B746F1E
:10021D00117B746C117B746C117B7465117B747222
:10022D00117B41B77444117B11E211E211E2746547
:10023D00117B7470117B7474117B7420117B746F3E
:10024D00117B7466117B7420117B744D117B746569
:0C025D00117B7463117B7468117B746169
:10026900117B7474117B7472117B746F117B746EC2
:10027900117B7469117B7463117B7473117B742016
:10028900117B7445117B746E117B7467117B7469E2
:10029900117B746E117B7465117B7465117B7472AB
:1002A900117B7469117B746E117B7467117B7D0EF0
:1002B9007EFA7FFADEFEDFFCDDF60149806A759081
:1002C900FFC2902094047431805B209504743280BD
:1002D900542096047433804DD290C29120940474B2
:1002E9003480422095047435803B2096047436800E
:1002F90034D291C2922094047437802920950474D1
:100309003880222096047439801BD292C29320949B
:1003190004742A801020950474308009209604748E
:100329002380028099110E2251C7B42A028038B461
:100339002302011BF57051C7B42302011BF571514A
:10034900C7B42302011BF57251C7B42302011BF57F
:1003590073E570117B11E211E2E571117BE5721110
:100369007BE573117B80C1781079FF7AFF7590FF67
:10037900C2932095047430800CDAF2D9EED8EA746D
:100389002A117B81307430117B110E51C7B42302BD
:10039900011BF57051C7B42302011BF57151C7B494
:0203A90023022D
:1003AB00011BF57251C7B42302011BF573E57011E4
:1003BB007B11E211E2E571117BE572117BE57311A3
:1003CB007BE570B5505FE571B5515AE572B5525585
:1003DB00E573B5535051C7B42302011BF57051C7D8
:1003EB00B42302011BF57151C7B42302011BF57233
:1003FB0051C7B42302011BF573E570117B11E21198
:10040B00E2E571117BE572117BE573117BE570F50C
:10041B0050E571F551E572F552E573F553110E1177
:09042B000E110E41C541C580FE11
:00000001FF
