:100000007570317571327572337573348046F5A031
:10001000C290C291D2921140C2921140114022F579
:10002000A0D290C291D2921140C2921140114022AE
:10003000D2A7C290D291C2921140D29220A7F722A9
:10004000781CD8FE227B087AFF79FFD9FEDAFADB2A
:10005000F622A18875A000D290D291D2921145B11A
:10006000957445111F746E111F7474111F746511FE
:100070001F7472111F7414110E746D111F746F119F
:100080001F7464111F7465111F7414110E743111E3
:100090001F746F111F7472111F7432111F75892024
:1000A000758DFA759850D28E3098FDE599C298B446
:1000B00031A03098FDE599F550C2983098FDE5994A
:1000C000F551C2983098FDE599F552C2983098FDE7
:1000D000E599F553C2983098FDE599F554C29830EA
:1000E00098FDE599F555C2983098FDE599F556C209
:1000F000983098FDE599F557C2983098FDE599F547
:1001000058C2983098FDE599F559C2983098FDE5A8
:1001100099F560C2983098FDE599F561C298B1955E
:10012000E550111FE551111FE552111FE553111F35
:0C013000E554111FE555111FE556111F85
:10013C00E557111FE558111FE559111FE560111FF7
:10014C00E561111F3098FDE599C298F562B195E50E
:10015C0062B423028010111F7D047EFA7FFADEFE4A
:10016C00DFFCDDF6B195E562B431028011B43202E8
:10017C004132B433026119B43402815101543098C4
:10018C00FDE599C298111F3098FDE599C298111F91
:10019C003098FDE599C298111F3098FDE599C298E9
:1001AC00111F3098FDE599C298111F3098FDE59903
:1001BC00C298111F3098FDE599C298111F3098FD17
:1001CC00E599C298111F3098FDE599C298111F301E
:1001DC0098FDE599C298111F3098FDE599C29811C8
:1001EC001F3098FDE599C298111F3098FDE599C212
:1001FC0098111F3098FDE599C298111F3098FDE5B4
:10020C0099C298111F74C0110E3098FDE599C298CF
:10021C00111F3098FDE599C298111F3098FDE59992
:10022C00C298111FA1753098FDE599C298111F3025
:10023C0098FDE599C298111F3098FDE599C2981167
:10024C001F3098FDE599C298111F3098FDE599C2B1
:10025C0098111F3098FDE599C298111F3098FDE553
:10026C0099C298111F3098FDE599C298111F3098CA
:0E027C00FDE599C298111F3098FDE599C298D2
:10028A00111F3098FDE599C298111F3098FDE59924
:10029A00C298111F3098FDE599C298111F3098FD38
:1002AA00E599C298111F3098FDE599C298111F303F
:1002BA0098FDE599C298111F74C0110E3098FDE59A
:1002CA0099C298111F3098FDE599C298111F30986C
:1002DA00FDE599C298111F3098FDE599C298111F42
:1002EA003098FDE599C298111F3098FDE599C2989A
:1002FA00111F3098FDE599C298111F3098FDE599B4
:10030A00C298111F3098FDE599C298111FA1753046
:10031A0098FDE599C298111F3098FDE599C2981188
:10032A001F3098FDE599C298111F3098FDE599C2D2
:10033A0098111F3098FDE599C298111F3098FDE574
:10034A0099C298111F3098FDE599C298111F3098EB
:10035A00FDE599C298111F3098FDE599C298111FC1
:10036A003098FDE599C298111F3098FDE599C29819
:10037A00111F3098FDE599C298111F3098FDE59933
:10038A00C298111F3098FDE599C298111F3098FD47
:10039A00E599C298111F3098FDE599C298111F740A
:1003AA00C0110E3098FDE599C298111F3098FDE5ED
:1003BA0099C298111F3098FDE599C298111F30987B
:1003CA00FDE599C298111F3098FDE599C298111F51
:1003DA003098FDE599C298111F3098FDE599C298A9
:1003EA00111F3098FDE599C298111F3098FDE599C3
:1003FA00C298111F3098FDE599C298111F3098FDD7
:10040A00E599C298111F3098FDE599C298111F30DD
:10041A0098FDE599C298111F3098FDE599C2981187
:10042A001F3098FDE599C298111F3098FDE599C2D1
:10043A0098111F3098FDE599C298111F3098FDE573
:10044A0099C298111FA1753098FDE599C298111F9C
:10045A003098FDE599C298111F3098FDE599C29828
:10046A00111F3098FDE599C298111F3098FDE59942
:10047A00C298111F3098FDE599C298111F3098FD56
:10048A00E599C298111F3098FDE599C298111F305D
:10049A0098FDE599C298111F3098FDE599C2981107
:1004AA001F3098FDE599C298111F3098FDE599C251
:1004BA0098111F3098FDE599C298111F3098FDE5F3
:1004CA0099C298111F3098FDE599C298111F30986A
:1004DA00FDE599C298111F74C0110E3098FDE59977
:1004EA00C298111F3098FDE599C298111F3098FDE6
:1004FA00E599C298111F3098FDE599C298111F30ED
:10050A0098FDE599C298111F3098FDE599C2981196
:10051A001F3098FDE599C298111F3098FDE599C2E0
:01052A009838
:10052B00111F3098FDE599C298111F3098FDE59980
:10053B00C298111F3098FDE599C298111F3098FD94
:10054B00E599C298111F3098FDE599C298111F309B
:10055B0098FDE599C298111F3098FDE599C2981145
:10056B001F3098FDE599C298111FB179800D7D0E52
:10057B007EFA7FFADEFEDFFCDDF62201B275A0000B
:10058B00D290D291D292114580177438110E740605
:10059B00110E740C110E7401110E7480110E114595
:1005AB0022B1957445111F746E111F7474111F7451
:1005BB0065111F7472111F7414110E7463111F7463
:1005CB006F111F7464111F7465111F8002C19C3061
:1005DB0098FDB195E599C298B42A0280F0B4230234
:1005EB000154B43002C1CCF574C2983098FDE59932
:1005FB00B423020154F575C2983098FDE599B423E4
:10060B00020154F576C2983098FDE599B4230201A6
:10061B0054F577C298E574B5703BE575B57136E561
:10062B0076B57231E577B5732C8002A195744411C0
:10063B001F746F111F746F111F7472111F742011AF
:10064B001F746F111F7470111F7465111F746E115D
:10065B001FB179A1887449111F746E111F74631136
:01066B001F6F
:10066C00746F111F7472111F7472111F7465111F36
:10067C007463111F7474111F7420111F7463111F84
:10068C00746F111F7464111F7465111FB179A188E7
:10069C007464111F746F111F746F111F7472111F0A
:1006AC007420111F7463111F746C111F746F111F50
:1006BC007473111F7465111F7464111FB179A188B3
:1006CC007465111F746E111F7474111F7465111FE2
:1006DC007472111F7420111F7463111F7475111F14
:1006EC007472111F7472111F7465111F746E111FB7
:1006FC007474111F74C0110E7420111F7463111FB8
:10070C00746F111F7464111F7465111F3098FDE50F
:10071C0099B423020154F574C2983098FDE599F50B
:10072C0075C2983098FDE599F576C2983098FDE53C
:10073C0099F577C298E574B57011E575B5710CE54E
:10074C0076B57207E577B5730280028074B1957443
:10075C0045111F746E111F7474111F7465111F7471
:10076C0072111F7420111F746E111F7465111F7488
:10077C0077111F7420111F7463111F746F111F7474
:10078C0064111F7465111F3098FDE599B4230201A3
:08079C0054F570C2983098FD7D
:1007A400E599B423020154F571C2983098FDE59996
:1007B400B423020154F572C2983098FDE599B4232C
:0B07C400020154F573C298A188A188BF
:00000001FF
